:100000000C944E000C9476000C9476000C947600C0
:100010000C9476000C9476000C9476000C94760088
:100020000C9476000C9476000C9476000C94760078
:100030000C9476000C9476000C9476000C94760068
:100040000C942A070C9476000C9443010C948601BE
:100050000C9476000C9476000C9476000C94760048
:100060000C9476000C94760020496E666F3A20005E
:100070004572726F723A200020506172616D733A5E
:1000800020005265743A200020506172616D733A0D
:100090002000436D643A20009700420211241FBEE5
:1000A000CFEFD8E0DEBFCDBF11E0A0E0B1E0EEE1E0
:1000B000F2E102C005900D92AE34B107D9F712E01B
:1000C000AEE4B1E001C01D92AF33B107E1F710E03B
:1000D000CCE9D0E004C02297FE010E940909C8398A
:1000E000D107C9F70E9498020C94E2080C94000012
:1000F00040E855E260E070E088E891E00E94C101CC
:1001000088E090E00E94A502FC0112828FEF8383B9
:10011000158214828FE391E09183808386E091E0E1
:1001200097838683BF018EE491E00C948E0668E885
:1001300071E081E691E00E94120720E030E040E0AB
:1001400050E061E671E08EE491E00C947A068EE472
:1001500091E00C94BB04FC0124853585F901E05C39
:10016000FF4F80819181F901EE5BFF4F208131814A
:10017000821B930B8F7399270895FC0184859585C5
:10018000FC01E05CFF4F40815181FC01EE5BFF4FC1
:10019000208131814217530741F00190F081E02D19
:1001A000E80FF91F808190E008958FEF9FEF089589
:1001B000FC0184859585FC01E05CFF4F4081518105
:1001C000FC01EE5BFF4F208131814217530779F02C
:1001D000A081B181A80FB91F8C91208131812F5F3F
:1001E0003F4F2F7333273183208390E008958FEFA3
:1001F0009FEF0895FC0181A1882329F0A489B58986
:100200008C9186FFFBCF11A20895CF93DF93FC0161
:1002100026853785D901A05CBF4F8D919C911197A0
:1002200001968F739927E901CE5BDF4F4881598191
:1002300084179507D9F30D90BC91A02DA20FB31F81
:100240006C93A685B785A05CBF4F11969C938E9347
:10025000A689B7892C9181E090E0078C02C0880FB5
:10026000991F0A94E2F7282B2C9381E081A304883C
:10027000F589E02D80818064808381E090E0DF91CA
:10028000CF91089508951F920F920FB60F921124E7
:100290002F933F934F938F939F93EF93FF9380916F
:1002A000C00082FD1CC04091C60080912E0290913A
:1002B0002F0201968F7399272091300230913102DD
:1002C0008217930771F0E0912E02F0912F02E25114
:1002D000FE4F408390932F0280932E0202C08091A4
:1002E000C600FF91EF919F918F914F913F912F9178
:1002F0000F900FBE0F901F90189588E891E00E9414
:10030000AB00892B11F00C94420108951F920F92BB
:100310000FB60F9211242F933F938F939F93EF93D8
:10032000FF932091EA013091EB018091EC019091D3
:10033000ED012817390731F48091C1008F7D80933A
:10034000C10014C0E091EC01F091ED01E655FE4FC3
:1003500020818091EC019091ED0101968F73992796
:100360009093ED018093EC012093C600FF91EF91F3
:100370009F918F913F912F910F900FBE0F901F90E3
:100380001895CF92DF92EF92FF92CF93DF93EC011B
:100390006A017B01411581EE580761057105F9F08D
:1003A000EC89FD8981E090E008A002C0880F991FC8
:1003B0000A94E2F7808360E079E08DE390E0A701A2
:1003C00096010E94E50821503109410951095695CD
:1003D000479537952795211580E1380798F0EC89E6
:1003E000FD89108260E874E88EE190E0A701960133
:1003F0000E94E50821503109410951095695479558
:1004000037952795E889F9893083EA89FB89208324
:1004100019A2EE89FF89408181E090E09C010C8C5B
:1004200002C0220F331F0A94E2F7422B4083EE8969
:10043000FF8940819C010D8C02C0220F331F0A945A
:10044000E2F7422B4083EE89FF8940819C010E8CAC
:1004500002C0220F331F0A94E2F7422B4083EE8939
:10046000FF8920810F8C02C0880F991F0A94E2F740
:10047000809582238083DF91CF91FF90EF90DF9072
:10048000CF90089510928B0110928A0188EE93E02C
:10049000A0E0B0E080938C0190938D01A0938E0139
:1004A000B0938F0189E191E0909389018093880155
:1004B0008EEE91E090939501809394018AEA91E009
:1004C000909397018093960185EC90E09093990129
:1004D0008093980184EC90E090939B0180939A0123
:1004E00080EC90E090939D0180939C0181EC90E0E2
:1004F00090939F0180939E0182EC90E09093A101E4
:100500008093A00186EC90E09093A3018093A201D8
:1005100084E08093A40183E08093A50187E0809329
:10052000A60185E08093A70181E08093A80108954A
:100530000E9480070E947800CDE7D1E00E94A700CA
:100540002097E1F30E947D01F9CF0C94BB07089539
:10055000CF92DF92EF92FF920F931F93CF93DF938F
:100560006C017A01EB01E60EF71E00E010E0CE15FB
:10057000DF0561F06991D601ED91FC910190F08168
:10058000E02DC6010995080F191FF1CFC801DF91B1
:10059000CF911F910F91FF90EF90DF90CF90089532
:1005A0006115710581F0DB010D900020E9F7AD01C7
:1005B00041505109461B570BDC01ED91FC91028023
:1005C000F381E02D099480E090E00895EF92FF928E
:1005D0000F931F93CF93DF938C01FB01C0E0D0E01A
:1005E00064917F018FEFE81AF80A662361F0D80161
:1005F000ED91FC910190F081E02DC8010995C80FA3
:10060000D91FF701EDCFCE01DF91CF911F910F914F
:10061000FF90EF900895DC01ED91FC910190F08145
:10062000E02D09940F931F93CF93DF93EC016DE0BE
:100630000E940B038C016AE0CE010E940B03800F25
:10064000911FDF91CF911F910F9108958F929F92EB
:10065000AF92BF92CF92DF92EF92FF920F931F93D0
:10066000CF93DF93CDB7DEB7A1970FB6F894DEBF77
:100670000FBECDBF7C01C42EE52FCB01D22E19A217
:1006800021E02D1510F02AE0D22E8E010F5D1F4FB4
:100690008D2C912CA12CB12C6C2D7E2FA5019401B9
:1006A0000E94E5088C2DD29E801911240150110959
:1006B0008A3014F4805D01C0895CF80180832115C3
:1006C00031054105510521F0C22EE32FCA01E4CFC7
:1006D000B801C7010E94D002A1960FB6F894DEBF00
:1006E0000FBECDBFDF91CF911F910F91FF90EF9083
:1006F000DF90CF90BF90AF909F908F900895CF9252
:10070000DF92EF92FF920F931F93CF93DF93EC0151
:100710006A017B012115310579F4E881F9810190A5
:10072000F081E02D642FDF91CF911F910F91FF9009
:10073000EF90DF90CF9009942A303105E9F477FFEC
:100740001AC06DE20E940B038C0144275527BA01A1
:100750004C195D096E097F092AE0CE010E9426032B
:10076000800F911FDF91CF911F910F91FF90EF901C
:10077000DF90CF9008952AE0B701A601CE01DF9166
:10078000CF911F910F91FF90EF90DF90CF900C943D
:1007900026039A01AB01662757FD6095762F0C94CE
:1007A0007F030F931F93CF93DF93EC019A01AB016B
:1007B000662757FD6095762F0E947F038C01CE013E
:1007C0000E941203800F911FDF91CF911F910F9113
:1007D000089570E0680F711D6F3F710521F01CF0E6
:1007E00077276F5F7F4F942FFA018E2F891B821717
:1007F00058F48191680F711D6F3F7105B1F3ACF32F
:1008000077276F5F7F4FF1CF862F80950895FC018A
:100810001382128214A20895FC01228133812230B6
:10082000310511F484A108958FEF089541E0FC0192
:1008300024813581232B09F440E0842F08954F92C1
:100840005F926F927F928F929F92AF92BF92CF9260
:10085000DF92EF920F931F93CF93DF9300D0CDB72A
:10086000DEB73C015B01490180913B0290913C0263
:10087000009711F48FE392E09E012F5F3F4F290113
:10088000481A590AD4018C9182305CF0FA016081D7
:100890004181D501ED91FC910280F381E02DC501EC
:1008A000099581E0F80180830E947407D8011196B0
:1008B0006D937D938D939C931497D501ED91FC914D
:1008C0000480F581E02DC5010995F80185835782E3
:1008D0004682085F1F4F80E090E038E0380FD30178
:1008E0001696ED91FC911797E80FF91F20812223AE
:1008F00061F0D8012D938D01019628E0280F2E1567
:1009000060F3F601E08284E803C0F401308380E004
:100910000F900F90DF91CF911F910F91EF90DF908B
:10092000CF90BF90AF909F908F907F906F905F908F
:100930004F900895FC0160FF09C040FF05C0818908
:1009400092899583848302C01582148266FF02C057
:1009500046FDFFCF67FF0EC047FF0CC028E088E1CF
:1009600090E00FB6F894A895809360000FBE209396
:100970006000FFCF08958F929F92AF92BF92CF9267
:10098000DF92EF92FF920F931F93CF93DF93CDB738
:10099000DEB7A2970FB6F894DEBF0FBECDBF5C01E5
:1009A000DC0116968D919C911797DC01ED91FC91DD
:1009B0000680F781E02D0995811189C1F5018681B5
:1009C0009781DC01ED91FC910280F381E02D099586
:1009D0008AA319A2F5019285891709F4B8C082305B
:1009E0000CF4B5C082870E947407D5011D966D93E3
:1009F0007D938D939C93509716960D911C9117970C
:100A0000F801E48065812AA1E22FFF27E7FDF09538
:100A1000462F4F7350E0CF010197481759070CF04C
:100A2000A0C067FBFF24F0F8FF2039F032974E1783
:100A30005F070CF096C083E001C082E0281B2AA368
:100A4000D50118968D909C90199789A181149104D5
:100A500091F0F40182818E110AC019A2838187FD71
:100A6000A5C0281709F4A2C089A313E806C0848092
:100A700095808E2DEBCF89A311E88FEFF50182874A
:100A80001123D1F184819581009709F160E770E02D
:100A90000E94E602612F70E04AE050E0D501149612
:100AA0008D919C9115970E94C90368E670E0F5014D
:100AB000848195810E94E60269A170E04AE050E0DD
:100AC000D50114968D919C9115970E94D1038FEFBB
:100AD00089831A8389A18B83F50186819781DC0143
:100AE000ED91FC910480F581E02D43E0BE016F5F44
:100AF0007F4F099587E0EBC0F4018281806889838C
:100B00001AA1612F6F73F11002C06A8309C0606877
:100B10006A83212FAE014C5F5F4F0E94E9038B83F4
:100B2000D50116968D919C911797DC01ED91FC9162
:100B30000480F581E02DFF2011F043E001C042E088
:100B4000410FBE016F5F7F4F099581E0C0C0F50185
:100B500085859685A785B089181619061A061B067D
:100B600014F080E0B4C083859485892BD1F30E9472
:100B70007407F5010585168527853089601B710B83
:100B8000820B930B0385148520E030E006171707CE
:100B90002807390730F786819781DC01ED91FC91B8
:100BA0000190F081E02D099584E091C0FF2071F063
:100BB000A801495F5F4F8E2D0E94E903D801169668
:100BC0009C91891719F089A315E857CFF501848105
:100BD0009581009719F162E970E00E94E6026E2D9E
:100BE00070E04AE050E0D50114968D919C911597E4
:100BF0000E94C90368E870E0F501848195810E9434
:100C0000E6026AA1772767FD70954AE050E0D501BA
:100C100014968D919C9115970E94D103D401ED916A
:100C2000FC910190F081E02DFF2021F02DE183E087
:100C300090E003C02EE182E090E08E010F5F1F4F35
:100C4000080F191FD50116968D919C911797FF20BB
:100C500019F043E050E002C042E050E04C5F5F4FCB
:100C6000480F591FCE0181966C01E22E9E012E5D28
:100C70003F4FB501C4010995182FD50114968D91E8
:100C80009C911597009709F4F8CE62E870E00E94F5
:100C9000E602612F70E04AE050E0F5018481958121
:100CA0000E94C90368E770E0D50114968D919C916C
:100CB00015970E94E6026AA1772767FD70954AE0C2
:100CC00050E0F501848195810E94D103D6CEA29691
:100CD0000FB6F894DEBF0FBECDBFDF91CF911F914D
:100CE0000F91FF90EF90DF90CF90BF90AF909F90CB
:100CF0008F900895FC0185E391E091838083778351
:100D0000668355834483528B418B8FEF8287348770
:100D10002387158616861786108A0895CF93DF934A
:100D2000EC01DB0112962C9112972F37B8F49885BD
:100D30008985E92FF82F309739F03281321781F009
:100D40000480F581E02DF7CF14969C9314971596A7
:100D50008C931597B987A88780E003C083E001C012
:100D600082E0DF91CF910895CF93DF93EC018DA1C5
:100D70009EA1DC01ED91FC9150E00280F381E02D19
:100D800009958DA19EA1DC01ED91FC910284F38572
:100D9000E02D099584E090E09B838A831CA280E08B
:100DA000DF91CF910895EF92FF920F931F93CF930E
:100DB000DF93EC018A819B81029709F01CA202E07B
:100DC00010E08DA19EA1DC01ED91FC910480F581E4
:100DD000E02D0995892BF1F0ECA081E08E0D8CA31C
:100DE000F12C8DA19EA1DC01ED91FC910680F78193
:100DF000E02D0995FE01EE0DFF1D84838CA181324B
:100E000030F081E090E09B838A8386E004C01B83FE
:100E10000A83D7CF80E0DF91CF911F910F91FF9090
:100E2000EF9008950F931F93CF93DF93EC018B0105
:100E300089E291E099838883CE010E94070485E4CA
:100E400091E0998388831EA30DA3DF91CF911F9119
:100E50000F9108951F920F920FB60F9211242F93A6
:100E60003F938F939F93AF93BF9380913302909161
:100E70003402A0913502B09136023091320223E063
:100E8000230F2D3720F40196A11DB11D05C026E8C2
:100E9000230F0296A11DB11D2093320280933302CD
:100EA00090933402A0933502B093360280913702BA
:100EB00090913802A0913902B0913A020196A11D99
:100EC000B11D8093370290933802A0933902B093FA
:100ED0003A02BF91AF919F918F913F912F910F90C7
:100EE0000FBE0F901F9018952FB7F89460913302A2
:100EF0007091340280913502909136022FBF08958F
:100F0000789484B5826084BD84B5816084BD85B5E4
:100F1000826085BD85B5816085BDEEE6F0E08081AB
:100F200081608083E1E8F0E01082808182608083CC
:100F3000808181608083E0E8F0E08081816080834F
:100F4000E1EBF0E0808184608083E0EBF0E0808181
:100F500081608083EAE7F0E0808184608083808123
:100F600082608083808181608083808180688083CB
:100F70001092C1000895CF93DF938230910510F451
:100F800082E090E0E0913D02F0913E0220E030E00E
:100F9000A0E0B0E0309739F14081518148175907FE
:100FA000B8F04817590771F482819381109729F09E
:100FB00013969C938E9312972CC090933E0280932D
:100FC0003D0227C02115310531F04217530718F0B3
:100FD000A901DB0101C0EF019A01BD01DF0102801F
:100FE000F381E02DD7CF21153105F9F0281B390BFE
:100FF0002430310580F48A819B816115710521F0CF
:10100000FB019383828304C090933E0280933D0250
:10101000FE01329644C0FE01E20FF31F81939193CB
:1010200022503109398328833AC020913B02309104
:101030003C02232B41F420910201309103013093B3
:101040003C0220933B0220910001309101012115C7
:10105000310541F42DB73EB740910401509105018F
:10106000241B350BE0913B02F0913C02E217F307A1
:10107000A0F42E1B3F0B2817390778F0AC014E5F08
:101080005F4F2417350748F04E0F5F1F50933C0207
:1010900040933B028193919302C0E0E0F0E0CF01E6
:1010A000DF91CF910895CF93DF93009709F487C024
:1010B000FC01329713821282C0913D02D0913E0210
:1010C000209781F420813181280F391F80913B02C4
:1010D00090913C028217930779F5F0933C02E093DC
:1010E0003B026DC0DE0120E030E0AE17BF0750F4D8
:1010F00012964D915C9113979D014115510509F18F
:10110000DA01F3CFB383A28340815181840F951F0D
:101110008A179B0771F48D919C911197840F951FED
:1011200002969183808312968D919C91139793835D
:1011300082832115310529F4F0933E02E0933D02AC
:101140003EC0D9011396FC93EE9312974D915D9199
:10115000A40FB51FEA17FB0779F480819181840FF2
:10116000951F0296D90111969C938E93828193814B
:1011700013969C938E931297E0E0F0E08A819B8116
:10118000009719F0FE01EC01F9CFCE0102962881FB
:101190003981820F931F20913B0230913C02281726
:1011A000390769F4309729F410923E0210923D02FB
:1011B00002C013821282D0933C02C0933B02DF91A3
:1011C000CF910895F8940C940D09A1E21A2EAA1B50
:1011D000BB1BFD010DC0AA1FBB1FEE1FFF1FA217E7
:1011E000B307E407F50720F0A21BB30BE40BF50BE4
:1011F000661F771F881F991F1A9469F7609570956D
:10120000809590959B01AC01BD01CF010895EE0F33
:0E121000FF1F0590F491E02D0994F894FFCF94
:10121E0000003F0220004D696E696D616C4578617A
:10122E006D706C6500000000000501A802AB00D8CF
:10123E0000BD00FA000000000007040C04A702A77E
:10124E000200000000BB049A041604000000001FF8
:0E125E00040000000007040C04B406D30600D0
:00000001FF
